{
  "contractName": "Chirper",
  "abi": [
    {
      "constant": true,
      "inputs": [],
      "name": "getAllChirps",
      "outputs": [
        {
          "components": [
            {
              "name": "chirpText",
              "type": "string"
            },
            {
              "name": "comments",
              "type": "string[]"
            },
            {
              "name": "poster",
              "type": "address"
            }
          ],
          "name": "chirpArr",
          "type": "tuple[]"
        }
      ],
      "payable": false,
      "stateMutability": "view",
      "type": "function",
      "signature": "0x2f0fc7cf"
    },
    {
      "constant": true,
      "inputs": [
        {
          "name": "index",
          "type": "uint256"
        }
      ],
      "name": "getChirp",
      "outputs": [
        {
          "components": [
            {
              "name": "chirpText",
              "type": "string"
            },
            {
              "name": "comments",
              "type": "string[]"
            },
            {
              "name": "poster",
              "type": "address"
            }
          ],
          "name": "chirp",
          "type": "tuple"
        }
      ],
      "payable": false,
      "stateMutability": "view",
      "type": "function",
      "signature": "0xb128734e"
    },
    {
      "constant": false,
      "inputs": [
        {
          "name": "chirpText",
          "type": "string"
        }
      ],
      "name": "postChirp",
      "outputs": [
        {
          "name": "success",
          "type": "bool"
        }
      ],
      "payable": false,
      "stateMutability": "nonpayable",
      "type": "function",
      "signature": "0x360ceed3"
    },
    {
      "constant": false,
      "inputs": [
        {
          "name": "comment",
          "type": "string"
        },
        {
          "name": "index",
          "type": "uint256"
        }
      ],
      "name": "addComment",
      "outputs": [
        {
          "components": [
            {
              "name": "chirpText",
              "type": "string"
            },
            {
              "name": "comments",
              "type": "string[]"
            },
            {
              "name": "poster",
              "type": "address"
            }
          ],
          "name": "chirp",
          "type": "tuple"
        }
      ],
      "payable": false,
      "stateMutability": "nonpayable",
      "type": "function",
      "signature": "0x96a3d8d7"
    }
  ],
  "bytecode": "0x608060405234801561001057600080fd5b50611043806100206000396000f3fe608060405260043610610062576000357c0100000000000000000000000000000000000000000000000000000000900463ffffffff1680632f0fc7cf14610067578063360ceed31461009257806396a3d8d7146100cf578063b128734e1461010c575b600080fd5b34801561007357600080fd5b5061007c610149565b6040516100899190610e61565b60405180910390f35b34801561009e57600080fd5b506100b960048036036100b49190810190610bc5565b61038d565b6040516100c69190610e83565b60405180910390f35b3480156100db57600080fd5b506100f660048036036100f19190810190610c06565b610494565b6040516101039190610e9e565b60405180910390f35b34801561011857600080fd5b50610133600480360361012e9190810190610c5a565b61070e565b6040516101409190610e9e565b60405180910390f35b60606000805480602002602001604051908101604052809291908181526020016000905b82821015610381578382906000526020600020906003020160606040519081016040529081600082018054600181600116156101000203166002900480601f01602080910402602001604051908101604052809291908181526020018280546001816001161561010002031660029004801561022a5780601f106101ff5761010080835404028352916020019161022a565b820191906000526020600020905b81548152906001019060200180831161020d57829003601f168201915b5050505050815260200160018201805480602002602001604051908101604052809291908181526020016000905b82821015610314578382906000526020600020018054600181600116156101000203166002900480601f0160208091040260200160405190810160405280929190818152602001828054600181600116156101000203166002900480156103005780601f106102d557610100808354040283529160200191610300565b820191906000526020600020905b8154815290600101906020018083116102e357829003601f168201915b505050505081526020019060010190610258565b5050505081526020016002820160009054906101000a900473ffffffffffffffffffffffffffffffffffffffff1673ffffffffffffffffffffffffffffffffffffffff1673ffffffffffffffffffffffffffffffffffffffff16815250508152602001906001019061016d565b50505050905080905090565b600061039761092a565b33816040019073ffffffffffffffffffffffffffffffffffffffff16908173ffffffffffffffffffffffffffffffffffffffff1681525050828160000181905250600081908060018154018082558091505090600182039060005260206000209060030201600090919290919091506000820151816000019080519060200190610422929190610962565b50602082015181600101908051906020019061043f9291906109e2565b5060408201518160020160006101000a81548173ffffffffffffffffffffffffffffffffffffffff021916908373ffffffffffffffffffffffffffffffffffffffff1602179055505050506001915050919050565b61049c61092a565b6000828154811015156104ab57fe5b90600052602060002090600302016001018390806001815401808255809150509060018203906000526020600020016000909192909190915090805190602001906104f7929190610a42565b505060008281548110151561050857fe5b906000526020600020906003020160606040519081016040529081600082018054600181600116156101000203166002900480601f0160208091040260200160405190810160405280929190818152602001828054600181600116156101000203166002900480156105bb5780601f10610590576101008083540402835291602001916105bb565b820191906000526020600020905b81548152906001019060200180831161059e57829003601f168201915b5050505050815260200160018201805480602002602001604051908101604052809291908181526020016000905b828210156106a5578382906000526020600020018054600181600116156101000203166002900480601f0160208091040260200160405190810160405280929190818152602001828054600181600116156101000203166002900480156106915780601f1061066657610100808354040283529160200191610691565b820191906000526020600020905b81548152906001019060200180831161067457829003601f168201915b5050505050815260200190600101906105e9565b5050505081526020016002820160009054906101000a900473ffffffffffffffffffffffffffffffffffffffff1673ffffffffffffffffffffffffffffffffffffffff1673ffffffffffffffffffffffffffffffffffffffff1681525050905080905092915050565b61071661092a565b60008281548110151561072557fe5b906000526020600020906003020160606040519081016040529081600082018054600181600116156101000203166002900480601f0160208091040260200160405190810160405280929190818152602001828054600181600116156101000203166002900480156107d85780601f106107ad576101008083540402835291602001916107d8565b820191906000526020600020905b8154815290600101906020018083116107bb57829003601f168201915b5050505050815260200160018201805480602002602001604051908101604052809291908181526020016000905b828210156108c2578382906000526020600020018054600181600116156101000203166002900480601f0160208091040260200160405190810160405280929190818152602001828054600181600116156101000203166002900480156108ae5780601f10610883576101008083540402835291602001916108ae565b820191906000526020600020905b81548152906001019060200180831161089157829003601f168201915b505050505081526020019060010190610806565b5050505081526020016002820160009054906101000a900473ffffffffffffffffffffffffffffffffffffffff1673ffffffffffffffffffffffffffffffffffffffff1673ffffffffffffffffffffffffffffffffffffffff16815250509050809050919050565b6060604051908101604052806060815260200160608152602001600073ffffffffffffffffffffffffffffffffffffffff1681525090565b828054600181600116156101000203166002900490600052602060002090601f016020900481019282601f106109a357805160ff19168380011785556109d1565b828001600101855582156109d1579182015b828111156109d05782518255916020019190600101906109b5565b5b5090506109de9190610ac2565b5090565b828054828255906000526020600020908101928215610a31579160200282015b82811115610a30578251829080519060200190610a20929190610962565b5091602001919060010190610a02565b5b509050610a3e9190610ae7565b5090565b828054600181600116156101000203166002900490600052602060002090601f016020900481019282601f10610a8357805160ff1916838001178555610ab1565b82800160010185558215610ab1579182015b82811115610ab0578251825591602001919060010190610a95565b5b509050610abe9190610ac2565b5090565b610ae491905b80821115610ae0576000816000905550600101610ac8565b5090565b90565b610b1091905b80821115610b0c5760008181610b039190610b13565b50600101610aed565b5090565b90565b50805460018160011615610100020316600290046000825580601f10610b395750610b58565b601f016020900490600052602060002090810190610b579190610ac2565b5b50565b600082601f8301121515610b6e57600080fd5b8135610b81610b7c82610eed565b610ec0565b91508082526020830160208301858383011115610b9d57600080fd5b610ba8838284610fb6565b50505092915050565b6000610bbd8235610fac565b905092915050565b600060208284031215610bd757600080fd5b600082013567ffffffffffffffff811115610bf157600080fd5b610bfd84828501610b5b565b91505092915050565b60008060408385031215610c1957600080fd5b600083013567ffffffffffffffff811115610c3357600080fd5b610c3f85828601610b5b565b9250506020610c5085828601610bb1565b9150509250929050565b600060208284031215610c6c57600080fd5b6000610c7a84828501610bb1565b91505092915050565b610c8c81610f6e565b82525050565b6000610c9d82610f33565b80845260208401935083602082028501610cb685610f19565b60005b84811015610cef578383038852610cd1838351610d7d565b9250610cdc82610f54565b9150602088019750600181019050610cb9565b508196508694505050505092915050565b6000610d0b82610f3e565b80845260208401935083602082028501610d2485610f26565b60005b84811015610d5d578383038852610d3f838351610e0a565b9250610d4a82610f61565b9150602088019750600181019050610d27565b508196508694505050505092915050565b610d7781610f80565b82525050565b6000610d8882610f49565b808452610d9c816020860160208601610fc5565b610da581610ff8565b602085010191505092915050565b60006060830160008301518482036000860152610dd08282610d7d565b91505060208301518482036020860152610dea8282610c92565b9150506040830151610dff6040860182610c83565b508091505092915050565b60006060830160008301518482036000860152610e278282610d7d565b91505060208301518482036020860152610e418282610c92565b9150506040830151610e566040860182610c83565b508091505092915050565b60006020820190508181036000830152610e7b8184610d00565b905092915050565b6000602082019050610e986000830184610d6e565b92915050565b60006020820190508181036000830152610eb88184610db3565b905092915050565b6000604051905081810181811067ffffffffffffffff82111715610ee357600080fd5b8060405250919050565b600067ffffffffffffffff821115610f0457600080fd5b601f19601f8301169050602081019050919050565b6000602082019050919050565b6000602082019050919050565b600081519050919050565b600081519050919050565b600081519050919050565b6000602082019050919050565b6000602082019050919050565b6000610f7982610f8c565b9050919050565b60008115159050919050565b600073ffffffffffffffffffffffffffffffffffffffff82169050919050565b6000819050919050565b82818337600083830152505050565b60005b83811015610fe3578082015181840152602081019050610fc8565b83811115610ff2576000848401525b50505050565b6000601f19601f830116905091905056fea265627a7a723058208ab00b095c48ef281ab4ae6caed69f6fa5f9004111606133b029dedfa96a92896c6578706572696d656e74616cf50037",
  "source": "pragma solidity >0.4.99 <0.6.0;\r\npragma experimental ABIEncoderV2;\r\n\r\ncontract Chirper {\r\n  struct Chirp {\r\n    string chirpText;\r\n      string[] comments;\r\n      address poster;\r\n  }\r\n  Chirp[] chirps;\r\n  function getAllChirps() public view returns(Chirp[] memory chirpArr) {\r\n    chirpArr = chirps;\r\n    return chirpArr;\r\n  }   \r\n  \r\n  function getChirp(uint index) view public returns(Chirp memory chirp) {\r\n    chirp = chirps[index];\r\n    return chirp;\r\n  }\r\n  \r\n  function postChirp(string memory chirpText) public returns(bool success) {\r\n    Chirp memory chirp;\r\n    chirp.poster = msg.sender;\r\n    chirp.chirpText = chirpText;\r\n    chirps.push(chirp);\r\n    return true;\r\n  }\r\n \r\n  function addComment(string memory comment, uint index) public returns(Chirp memory chirp) {\r\n    chirps[index].comments.push(comment); \r\n    chirp = chirps[index];\r\n    return chirp;\r\n  }\r\n}",
  "sourcePath": "C:/Users/Venkatesh/workspace_blockchain/chirper/contracts/Chirper.sol",
  "compiler": {
    "name": "solc",
    "version": "0.5.0+commit.1d4f565a.Emscripten.clang"
  },
  "schemaVersion": "3.0.1",
  "updatedAt": "2019-01-26T13:00:23.786Z",
  "devdoc": {
    "methods": {}
  },
  "userdoc": {
    "methods": {}
  }
}